:030000000208A44F
:0C08A400787FE4F6D8FD7581200208EB97
:100A200020202050726F6A65746F2064652020005A
:100A30002020202020204D6963726F20202020007C
:100A40004E756D206465206F626A74732E2E2E00C1
:100A7500140A0030003100320033003400350036EE
:0A0A850000370038003902080000B5
:0609E900D2B77F057E007D
:1009EF00D3EF9400EE6480948040257DFAEDD3948C
:1009FF00007480948040031D80F37DF8EDD3940044
:100A0F007480948040031D80F3EF1F70D31E80D03D
:010A1F0022B4
:0A0AA4008F90C2B61209E9C2B72212
:0A0AAE008F90D2B61209E9C2B722F8
:100A50008B1E8A1F8920AB1EAA1FA92012080060C6
:100A6000130520E5207002051F14F9120800FF127B
:050A70000AAE80E22245
:100A90007F38120AA47F0C120AA47F01120AA47FD5
:040AA00080020AA422
:0409A700AF09AE08DE
:1009AB00AB07AA067FC0120AA47C007D0AAF03AE78
:1009BB00021208197C007D0A120819ED25E0240AA1
:1009CB00F808E6FF120AAEAE02AF037C007D0A12F6
:0E09DB000819ED25E0240AF808E6FF020AAE2E
:10093000E4F5A0120A907BFF7A0A7920120A507F10
:10094000C0120AA47BFF7A0A7930120A507FE87E2F
:10095000031209EF7F01120AA47F80120AA47BFF11
:100960007A0A7940120A507FC0120AA41209A730ED
:10097000A01930A1FDE5096463450860080509E593
:10098000097002050820A1FD1209A730A1E130A0DD
:10099000FDE50945086008E50915097002150820FC
:0709A000A0FD1209A780C8A9
:1008B000020930E493A3F8E493A34003F68001F225
:1008C00008DFF48029E493A3F85407240CC8C33349
:1008D000C4540F4420C8834004F456800146F6DF18
:1008E000E4800B0102040810204080900A75E47E29
:1008F000019360BCA3FF543F30E509541FFEE4930D
:10090000A360010ECF54C025E060A840B8E493A3D3
:10091000FAE493A3F8E493A3C8C582C8CAC583CAFE
:10092000F0A3C8C582C8CAC583CADFE9DEE780BEB6
:010A8F000066
:10080000BB010689828A83E0225002E722BBFE02F6
:09081000E32289828A83E4932229
:10081900C2D5EC30E709B2D5E4C39DFDE49CFCEEFA
:1008290030E715B2D5E4C39FFFE49EFE12084FC31B
:10083900E49DFDE49CFC800312084F30D507C3E416
:060849009FFFE49EFE2269
:10084F00BC000BBE0029EF8DF084FFADF022E4CC8D
:10085F00F875F008EF2FFFEE33FEEC33FCEE9DEC56
:10086F00984005FCEE9DFE0FD5F0E9E4CEFD22ED9C
:10087F00F8F5F0EE8420D21CFEADF075F008EF2FE6
:10088F00FFED33FD4007985006D5F0F222C398FDD7
:05089F000FD5F0EA2274
:00000001FF
